{
  "_format": "hh-sol-artifact-1",
  "contractName": "Deposited",
  "sourceName": "contracts/Deposit.sol",
  "abi": [
    {
      "inputs": [
        {
          "internalType": "contract IERC20",
          "name": "_erc20Token",
          "type": "address"
        },
        {
          "internalType": "contract MintERC721",
          "name": "_erc721Token",
          "type": "address"
        }
      ],
      "stateMutability": "nonpayable",
      "type": "constructor"
    },
    {
      "inputs": [
        {
          "internalType": "address",
          "name": "owner",
          "type": "address"
        }
      ],
      "name": "OwnableInvalidOwner",
      "type": "error"
    },
    {
      "inputs": [
        {
          "internalType": "address",
          "name": "account",
          "type": "address"
        }
      ],
      "name": "OwnableUnauthorizedAccount",
      "type": "error"
    },
    {
      "anonymous": false,
      "inputs": [
        {
          "indexed": true,
          "internalType": "address",
          "name": "user",
          "type": "address"
        },
        {
          "indexed": false,
          "internalType": "uint256",
          "name": "amount",
          "type": "uint256"
        }
      ],
      "name": "Deposit",
      "type": "event"
    },
    {
      "anonymous": false,
      "inputs": [
        {
          "indexed": true,
          "internalType": "address",
          "name": "previousOwner",
          "type": "address"
        },
        {
          "indexed": true,
          "internalType": "address",
          "name": "newOwner",
          "type": "address"
        }
      ],
      "name": "OwnershipTransferred",
      "type": "event"
    },
    {
      "inputs": [],
      "name": "DEPOSIT_THRESHOLD",
      "outputs": [
        {
          "internalType": "uint256",
          "name": "",
          "type": "uint256"
        }
      ],
      "stateMutability": "view",
      "type": "function"
    },
    {
      "inputs": [
        {
          "internalType": "uint256",
          "name": "amount",
          "type": "uint256"
        }
      ],
      "name": "deposit",
      "outputs": [],
      "stateMutability": "nonpayable",
      "type": "function"
    },
    {
      "inputs": [
        {
          "internalType": "address",
          "name": "",
          "type": "address"
        }
      ],
      "name": "deposits",
      "outputs": [
        {
          "internalType": "uint256",
          "name": "",
          "type": "uint256"
        }
      ],
      "stateMutability": "view",
      "type": "function"
    },
    {
      "inputs": [],
      "name": "erc20Token",
      "outputs": [
        {
          "internalType": "contract IERC20",
          "name": "",
          "type": "address"
        }
      ],
      "stateMutability": "view",
      "type": "function"
    },
    {
      "inputs": [],
      "name": "erc721Token",
      "outputs": [
        {
          "internalType": "contract MintERC721",
          "name": "",
          "type": "address"
        }
      ],
      "stateMutability": "view",
      "type": "function"
    },
    {
      "inputs": [],
      "name": "owner",
      "outputs": [
        {
          "internalType": "address",
          "name": "",
          "type": "address"
        }
      ],
      "stateMutability": "view",
      "type": "function"
    },
    {
      "inputs": [],
      "name": "renounceOwnership",
      "outputs": [],
      "stateMutability": "nonpayable",
      "type": "function"
    },
    {
      "inputs": [
        {
          "internalType": "address",
          "name": "newOwner",
          "type": "address"
        }
      ],
      "name": "transferOwnership",
      "outputs": [],
      "stateMutability": "nonpayable",
      "type": "function"
    }
  ],
  "bytecode": "0x60806040523480156200001157600080fd5b5060405162000e7b38038062000e7b8339818101604052810190620000379190620002d0565b33600073ffffffffffffffffffffffffffffffffffffffff168173ffffffffffffffffffffffffffffffffffffffff1603620000ad5760006040517f1e4fbdf7000000000000000000000000000000000000000000000000000000008152600401620000a4919062000328565b60405180910390fd5b620000be816200014960201b60201c565b5081600160006101000a81548173ffffffffffffffffffffffffffffffffffffffff021916908373ffffffffffffffffffffffffffffffffffffffff16021790555080600260006101000a81548173ffffffffffffffffffffffffffffffffffffffff021916908373ffffffffffffffffffffffffffffffffffffffff160217905550505062000345565b60008060009054906101000a900473ffffffffffffffffffffffffffffffffffffffff169050816000806101000a81548173ffffffffffffffffffffffffffffffffffffffff021916908373ffffffffffffffffffffffffffffffffffffffff1602179055508173ffffffffffffffffffffffffffffffffffffffff168173ffffffffffffffffffffffffffffffffffffffff167f8be0079c531659141344cd1fd0a4f28419497f9722a3daafe3b4186f6b6457e060405160405180910390a35050565b600080fd5b600073ffffffffffffffffffffffffffffffffffffffff82169050919050565b60006200023f8262000212565b9050919050565b6000620002538262000232565b9050919050565b620002658162000246565b81146200027157600080fd5b50565b60008151905062000285816200025a565b92915050565b6000620002988262000232565b9050919050565b620002aa816200028b565b8114620002b657600080fd5b50565b600081519050620002ca816200029f565b92915050565b60008060408385031215620002ea57620002e96200020d565b5b6000620002fa8582860162000274565b92505060206200030d85828601620002b9565b9150509250929050565b620003228162000232565b82525050565b60006020820190506200033f600083018462000317565b92915050565b610b2680620003556000396000f3fe608060405234801561001057600080fd5b50600436106100885760003560e01c8063b6b55f251161005b578063b6b55f25146100f1578063d9fb27b91461010d578063f2fde38b1461012b578063fc7e286d1461014757610088565b80635f2d6bcd1461008d578063715018a6146100ab5780638a13eea7146100b55780638da5cb5b146100d3575b600080fd5b610095610177565b6040516100a29190610764565b60405180910390f35b6100b361019d565b005b6100bd6101b1565b6040516100ca91906107a0565b60405180910390f35b6100db6101d7565b6040516100e891906107dc565b60405180910390f35b61010b60048036038101906101069190610832565b610200565b005b6101156104e7565b604051610122919061086e565b60405180910390f35b610145600480360381019061014091906108b5565b6104f4565b005b610161600480360381019061015c91906108b5565b61057a565b60405161016e919061086e565b60405180910390f35b600260009054906101000a900473ffffffffffffffffffffffffffffffffffffffff1681565b6101a5610592565b6101af6000610619565b565b600160009054906101000a900473ffffffffffffffffffffffffffffffffffffffff1681565b60008060009054906101000a900473ffffffffffffffffffffffffffffffffffffffff16905090565b60008111610243576040517f08c379a000000000000000000000000000000000000000000000000000000000815260040161023a90610965565b60405180910390fd5b600160009054906101000a900473ffffffffffffffffffffffffffffffffffffffff1673ffffffffffffffffffffffffffffffffffffffff166323b872dd3330846040518463ffffffff1660e01b81526004016102a293929190610985565b6020604051808303816000875af11580156102c1573d6000803e3d6000fd5b505050506040513d601f19601f820116820180604052508101906102e591906109f4565b610324576040517f08c379a000000000000000000000000000000000000000000000000000000000815260040161031b90610a6d565b60405180910390fd5b80600360003373ffffffffffffffffffffffffffffffffffffffff1673ffffffffffffffffffffffffffffffffffffffff16815260200190815260200160002060008282546103739190610abc565b92505081905550683635c9adc5dea00000600360003373ffffffffffffffffffffffffffffffffffffffff1673ffffffffffffffffffffffffffffffffffffffff16815260200190815260200160002054106104e457600260009054906101000a900473ffffffffffffffffffffffffffffffffffffffff1673ffffffffffffffffffffffffffffffffffffffff16636a627842336040518263ffffffff1660e01b815260040161042491906107dc565b600060405180830381600087803b15801561043e57600080fd5b505af1158015610452573d6000803e3d6000fd5b505050503373ffffffffffffffffffffffffffffffffffffffff167fe1fffcc4923d04b559f4d29a8bfc6cda04eb5b0d3c460751c2402c5c5cc9109c600360003373ffffffffffffffffffffffffffffffffffffffff1673ffffffffffffffffffffffffffffffffffffffff168152602001908152602001600020546040516104db919061086e565b60405180910390a25b50565b683635c9adc5dea0000081565b6104fc610592565b600073ffffffffffffffffffffffffffffffffffffffff168173ffffffffffffffffffffffffffffffffffffffff160361056e5760006040517f1e4fbdf700000000000000000000000000000000000000000000000000000000815260040161056591906107dc565b60405180910390fd5b61057781610619565b50565b60036020528060005260406000206000915090505481565b61059a6106dd565b73ffffffffffffffffffffffffffffffffffffffff166105b86101d7565b73ffffffffffffffffffffffffffffffffffffffff1614610617576105db6106dd565b6040517f118cdaa700000000000000000000000000000000000000000000000000000000815260040161060e91906107dc565b60405180910390fd5b565b60008060009054906101000a900473ffffffffffffffffffffffffffffffffffffffff169050816000806101000a81548173ffffffffffffffffffffffffffffffffffffffff021916908373ffffffffffffffffffffffffffffffffffffffff1602179055508173ffffffffffffffffffffffffffffffffffffffff168173ffffffffffffffffffffffffffffffffffffffff167f8be0079c531659141344cd1fd0a4f28419497f9722a3daafe3b4186f6b6457e060405160405180910390a35050565b600033905090565b600073ffffffffffffffffffffffffffffffffffffffff82169050919050565b6000819050919050565b600061072a610725610720846106e5565b610705565b6106e5565b9050919050565b600061073c8261070f565b9050919050565b600061074e82610731565b9050919050565b61075e81610743565b82525050565b60006020820190506107796000830184610755565b92915050565b600061078a82610731565b9050919050565b61079a8161077f565b82525050565b60006020820190506107b56000830184610791565b92915050565b60006107c6826106e5565b9050919050565b6107d6816107bb565b82525050565b60006020820190506107f160008301846107cd565b92915050565b600080fd5b6000819050919050565b61080f816107fc565b811461081a57600080fd5b50565b60008135905061082c81610806565b92915050565b600060208284031215610848576108476107f7565b5b60006108568482850161081d565b91505092915050565b610868816107fc565b82525050565b6000602082019050610883600083018461085f565b92915050565b610892816107bb565b811461089d57600080fd5b50565b6000813590506108af81610889565b92915050565b6000602082840312156108cb576108ca6107f7565b5b60006108d9848285016108a0565b91505092915050565b600082825260208201905092915050565b7f4465706f73697420616d6f756e74206d7573742062652067726561746572207460008201527f68616e2030000000000000000000000000000000000000000000000000000000602082015250565b600061094f6025836108e2565b915061095a826108f3565b604082019050919050565b6000602082019050818103600083015261097e81610942565b9050919050565b600060608201905061099a60008301866107cd565b6109a760208301856107cd565b6109b4604083018461085f565b949350505050565b60008115159050919050565b6109d1816109bc565b81146109dc57600080fd5b50565b6000815190506109ee816109c8565b92915050565b600060208284031215610a0a57610a096107f7565b5b6000610a18848285016109df565b91505092915050565b7f4552433230207472616e73666572206661696c65640000000000000000000000600082015250565b6000610a576015836108e2565b9150610a6282610a21565b602082019050919050565b60006020820190508181036000830152610a8681610a4a565b9050919050565b7f4e487b7100000000000000000000000000000000000000000000000000000000600052601160045260246000fd5b6000610ac7826107fc565b9150610ad2836107fc565b9250828201905080821115610aea57610ae9610a8d565b5b9291505056fea264697066735822122066ed91ccf9aef538bc556759d913c56e4d3c580bba08015ce1faafc51e67317164736f6c63430008140033",
  "linkReferences": {},
  "deployedLinkReferences": {}
}