{
  "_format": "hh-sol-artifact-1",
  "contractName": "MintERC721",
  "sourceName": "contracts/Deposit.sol",
  "abi": [
    {
      "inputs": [],
      "stateMutability": "nonpayable",
      "type": "constructor"
    },
    {
      "inputs": [
        {
          "internalType": "address",
          "name": "sender",
          "type": "address"
        },
        {
          "internalType": "uint256",
          "name": "tokenId",
          "type": "uint256"
        },
        {
          "internalType": "address",
          "name": "owner",
          "type": "address"
        }
      ],
      "name": "ERC721IncorrectOwner",
      "type": "error"
    },
    {
      "inputs": [
        {
          "internalType": "address",
          "name": "operator",
          "type": "address"
        },
        {
          "internalType": "uint256",
          "name": "tokenId",
          "type": "uint256"
        }
      ],
      "name": "ERC721InsufficientApproval",
      "type": "error"
    },
    {
      "inputs": [
        {
          "internalType": "address",
          "name": "approver",
          "type": "address"
        }
      ],
      "name": "ERC721InvalidApprover",
      "type": "error"
    },
    {
      "inputs": [
        {
          "internalType": "address",
          "name": "operator",
          "type": "address"
        }
      ],
      "name": "ERC721InvalidOperator",
      "type": "error"
    },
    {
      "inputs": [
        {
          "internalType": "address",
          "name": "owner",
          "type": "address"
        }
      ],
      "name": "ERC721InvalidOwner",
      "type": "error"
    },
    {
      "inputs": [
        {
          "internalType": "address",
          "name": "receiver",
          "type": "address"
        }
      ],
      "name": "ERC721InvalidReceiver",
      "type": "error"
    },
    {
      "inputs": [
        {
          "internalType": "address",
          "name": "sender",
          "type": "address"
        }
      ],
      "name": "ERC721InvalidSender",
      "type": "error"
    },
    {
      "inputs": [
        {
          "internalType": "uint256",
          "name": "tokenId",
          "type": "uint256"
        }
      ],
      "name": "ERC721NonexistentToken",
      "type": "error"
    },
    {
      "inputs": [
        {
          "internalType": "address",
          "name": "owner",
          "type": "address"
        }
      ],
      "name": "OwnableInvalidOwner",
      "type": "error"
    },
    {
      "inputs": [
        {
          "internalType": "address",
          "name": "account",
          "type": "address"
        }
      ],
      "name": "OwnableUnauthorizedAccount",
      "type": "error"
    },
    {
      "anonymous": false,
      "inputs": [
        {
          "indexed": true,
          "internalType": "address",
          "name": "owner",
          "type": "address"
        },
        {
          "indexed": true,
          "internalType": "address",
          "name": "approved",
          "type": "address"
        },
        {
          "indexed": true,
          "internalType": "uint256",
          "name": "tokenId",
          "type": "uint256"
        }
      ],
      "name": "Approval",
      "type": "event"
    },
    {
      "anonymous": false,
      "inputs": [
        {
          "indexed": true,
          "internalType": "address",
          "name": "owner",
          "type": "address"
        },
        {
          "indexed": true,
          "internalType": "address",
          "name": "operator",
          "type": "address"
        },
        {
          "indexed": false,
          "internalType": "bool",
          "name": "approved",
          "type": "bool"
        }
      ],
      "name": "ApprovalForAll",
      "type": "event"
    },
    {
      "anonymous": false,
      "inputs": [
        {
          "indexed": true,
          "internalType": "address",
          "name": "previousOwner",
          "type": "address"
        },
        {
          "indexed": true,
          "internalType": "address",
          "name": "newOwner",
          "type": "address"
        }
      ],
      "name": "OwnershipTransferred",
      "type": "event"
    },
    {
      "anonymous": false,
      "inputs": [
        {
          "indexed": true,
          "internalType": "address",
          "name": "from",
          "type": "address"
        },
        {
          "indexed": true,
          "internalType": "address",
          "name": "to",
          "type": "address"
        },
        {
          "indexed": true,
          "internalType": "uint256",
          "name": "tokenId",
          "type": "uint256"
        }
      ],
      "name": "Transfer",
      "type": "event"
    },
    {
      "inputs": [
        {
          "internalType": "address",
          "name": "to",
          "type": "address"
        },
        {
          "internalType": "uint256",
          "name": "tokenId",
          "type": "uint256"
        }
      ],
      "name": "approve",
      "outputs": [],
      "stateMutability": "nonpayable",
      "type": "function"
    },
    {
      "inputs": [
        {
          "internalType": "address",
          "name": "owner",
          "type": "address"
        }
      ],
      "name": "balanceOf",
      "outputs": [
        {
          "internalType": "uint256",
          "name": "",
          "type": "uint256"
        }
      ],
      "stateMutability": "view",
      "type": "function"
    },
    {
      "inputs": [
        {
          "internalType": "uint256",
          "name": "tokenId",
          "type": "uint256"
        }
      ],
      "name": "getApproved",
      "outputs": [
        {
          "internalType": "address",
          "name": "",
          "type": "address"
        }
      ],
      "stateMutability": "view",
      "type": "function"
    },
    {
      "inputs": [
        {
          "internalType": "address",
          "name": "owner",
          "type": "address"
        },
        {
          "internalType": "address",
          "name": "operator",
          "type": "address"
        }
      ],
      "name": "isApprovedForAll",
      "outputs": [
        {
          "internalType": "bool",
          "name": "",
          "type": "bool"
        }
      ],
      "stateMutability": "view",
      "type": "function"
    },
    {
      "inputs": [
        {
          "internalType": "address",
          "name": "to",
          "type": "address"
        }
      ],
      "name": "mint",
      "outputs": [],
      "stateMutability": "nonpayable",
      "type": "function"
    },
    {
      "inputs": [],
      "name": "name",
      "outputs": [
        {
          "internalType": "string",
          "name": "",
          "type": "string"
        }
      ],
      "stateMutability": "view",
      "type": "function"
    },
    {
      "inputs": [],
      "name": "owner",
      "outputs": [
        {
          "internalType": "address",
          "name": "",
          "type": "address"
        }
      ],
      "stateMutability": "view",
      "type": "function"
    },
    {
      "inputs": [
        {
          "internalType": "uint256",
          "name": "tokenId",
          "type": "uint256"
        }
      ],
      "name": "ownerOf",
      "outputs": [
        {
          "internalType": "address",
          "name": "",
          "type": "address"
        }
      ],
      "stateMutability": "view",
      "type": "function"
    },
    {
      "inputs": [],
      "name": "renounceOwnership",
      "outputs": [],
      "stateMutability": "nonpayable",
      "type": "function"
    },
    {
      "inputs": [
        {
          "internalType": "address",
          "name": "from",
          "type": "address"
        },
        {
          "internalType": "address",
          "name": "to",
          "type": "address"
        },
        {
          "internalType": "uint256",
          "name": "tokenId",
          "type": "uint256"
        }
      ],
      "name": "safeTransferFrom",
      "outputs": [],
      "stateMutability": "nonpayable",
      "type": "function"
    },
    {
      "inputs": [
        {
          "internalType": "address",
          "name": "from",
          "type": "address"
        },
        {
          "internalType": "address",
          "name": "to",
          "type": "address"
        },
        {
          "internalType": "uint256",
          "name": "tokenId",
          "type": "uint256"
        },
        {
          "internalType": "bytes",
          "name": "data",
          "type": "bytes"
        }
      ],
      "name": "safeTransferFrom",
      "outputs": [],
      "stateMutability": "nonpayable",
      "type": "function"
    },
    {
      "inputs": [
        {
          "internalType": "address",
          "name": "operator",
          "type": "address"
        },
        {
          "internalType": "bool",
          "name": "approved",
          "type": "bool"
        }
      ],
      "name": "setApprovalForAll",
      "outputs": [],
      "stateMutability": "nonpayable",
      "type": "function"
    },
    {
      "inputs": [
        {
          "internalType": "bytes4",
          "name": "interfaceId",
          "type": "bytes4"
        }
      ],
      "name": "supportsInterface",
      "outputs": [
        {
          "internalType": "bool",
          "name": "",
          "type": "bool"
        }
      ],
      "stateMutability": "view",
      "type": "function"
    },
    {
      "inputs": [],
      "name": "symbol",
      "outputs": [
        {
          "internalType": "string",
          "name": "",
          "type": "string"
        }
      ],
      "stateMutability": "view",
      "type": "function"
    },
    {
      "inputs": [
        {
          "internalType": "uint256",
          "name": "tokenId",
          "type": "uint256"
        }
      ],
      "name": "tokenURI",
      "outputs": [
        {
          "internalType": "string",
          "name": "",
          "type": "string"
        }
      ],
      "stateMutability": "view",
      "type": "function"
    },
    {
      "inputs": [
        {
          "internalType": "address",
          "name": "from",
          "type": "address"
        },
        {
          "internalType": "address",
          "name": "to",
          "type": "address"
        },
        {
          "internalType": "uint256",
          "name": "tokenId",
          "type": "uint256"
        }
      ],
      "name": "transferFrom",
      "outputs": [],
      "stateMutability": "nonpayable",
      "type": "function"
    },
    {
      "inputs": [
        {
          "internalType": "address",
          "name": "newOwner",
          "type": "address"
        }
      ],
      "name": "transferOwnership",
      "outputs": [],
      "stateMutability": "nonpayable",
      "type": "function"
    }
  ],
  "bytecode": "0x60806040523480156200001157600080fd5b50336040518060400160405280600581526020017f4d794e46540000000000000000000000000000000000000000000000000000008152506040518060400160405280600381526020017f4e46540000000000000000000000000000000000000000000000000000000000815250816000908162000090919062000472565b508060019081620000a2919062000472565b505050600073ffffffffffffffffffffffffffffffffffffffff168173ffffffffffffffffffffffffffffffffffffffff16036200011a5760006040517f1e4fbdf70000000000000000000000000000000000000000000000000000000081526004016200011191906200059e565b60405180910390fd5b6200012b816200013260201b60201c565b50620005bb565b6000600660009054906101000a900473ffffffffffffffffffffffffffffffffffffffff16905081600660006101000a81548173ffffffffffffffffffffffffffffffffffffffff021916908373ffffffffffffffffffffffffffffffffffffffff1602179055508173ffffffffffffffffffffffffffffffffffffffff168173ffffffffffffffffffffffffffffffffffffffff167f8be0079c531659141344cd1fd0a4f28419497f9722a3daafe3b4186f6b6457e060405160405180910390a35050565b600081519050919050565b7f4e487b7100000000000000000000000000000000000000000000000000000000600052604160045260246000fd5b7f4e487b7100000000000000000000000000000000000000000000000000000000600052602260045260246000fd5b600060028204905060018216806200027a57607f821691505b60208210810362000290576200028f62000232565b5b50919050565b60008190508160005260206000209050919050565b60006020601f8301049050919050565b600082821b905092915050565b600060088302620002fa7fffffffffffffffffffffffffffffffffffffffffffffffffffffffffffffffff82620002bb565b620003068683620002bb565b95508019841693508086168417925050509392505050565b6000819050919050565b6000819050919050565b6000620003536200034d62000347846200031e565b62000328565b6200031e565b9050919050565b6000819050919050565b6200036f8362000332565b620003876200037e826200035a565b848454620002c8565b825550505050565b600090565b6200039e6200038f565b620003ab81848462000364565b505050565b5b81811015620003d357620003c760008262000394565b600181019050620003b1565b5050565b601f8211156200042257620003ec8162000296565b620003f784620002ab565b8101602085101562000407578190505b6200041f6200041685620002ab565b830182620003b0565b50505b505050565b600082821c905092915050565b6000620004476000198460080262000427565b1980831691505092915050565b600062000462838362000434565b9150826002028217905092915050565b6200047d82620001f8565b67ffffffffffffffff81111562000499576200049862000203565b5b620004a5825462000261565b620004b2828285620003d7565b600060209050601f831160018114620004ea5760008415620004d5578287015190505b620004e1858262000454565b86555062000551565b601f198416620004fa8662000296565b60005b828110156200052457848901518255600182019150602085019450602081019050620004fd565b8683101562000544578489015162000540601f89168262000434565b8355505b6001600288020188555050505b505050505050565b600073ffffffffffffffffffffffffffffffffffffffff82169050919050565b6000620005868262000559565b9050919050565b620005988162000579565b82525050565b6000602082019050620005b560008301846200058d565b92915050565b6120fa80620005cb6000396000f3fe608060405234801561001057600080fd5b506004361061010b5760003560e01c806370a08231116100a2578063a22cb46511610071578063a22cb465146102a4578063b88d4fde146102c0578063c87b56dd146102dc578063e985e9c51461030c578063f2fde38b1461033c5761010b565b806370a082311461022e578063715018a61461025e5780638da5cb5b1461026857806395d89b41146102865761010b565b806323b872dd116100de57806323b872dd146101aa57806342842e0e146101c65780636352211e146101e25780636a627842146102125761010b565b806301ffc9a71461011057806306fdde0314610140578063081812fc1461015e578063095ea7b31461018e575b600080fd5b61012a600480360381019061012591906118cd565b610358565b6040516101379190611915565b60405180910390f35b61014861043a565b60405161015591906119c0565b60405180910390f35b61017860048036038101906101739190611a18565b6104cc565b6040516101859190611a86565b60405180910390f35b6101a860048036038101906101a39190611acd565b6104e8565b005b6101c460048036038101906101bf9190611b0d565b6104fe565b005b6101e060048036038101906101db9190611b0d565b610600565b005b6101fc60048036038101906101f79190611a18565b610620565b6040516102099190611a86565b60405180910390f35b61022c60048036038101906102279190611b60565b610632565b005b61024860048036038101906102439190611b60565b610659565b6040516102559190611b9c565b60405180910390f35b610266610713565b005b610270610727565b60405161027d9190611a86565b60405180910390f35b61028e610751565b60405161029b91906119c0565b60405180910390f35b6102be60048036038101906102b99190611be3565b6107e3565b005b6102da60048036038101906102d59190611d58565b6107f9565b005b6102f660048036038101906102f19190611a18565b610816565b60405161030391906119c0565b60405180910390f35b61032660048036038101906103219190611ddb565b61087f565b6040516103339190611915565b60405180910390f35b61035660048036038101906103519190611b60565b610913565b005b60007f80ac58cd000000000000000000000000000000000000000000000000000000007bffffffffffffffffffffffffffffffffffffffffffffffffffffffff1916827bffffffffffffffffffffffffffffffffffffffffffffffffffffffff1916148061042357507f5b5e139f000000000000000000000000000000000000000000000000000000007bffffffffffffffffffffffffffffffffffffffffffffffffffffffff1916827bffffffffffffffffffffffffffffffffffffffffffffffffffffffff1916145b80610433575061043282610999565b5b9050919050565b60606000805461044990611e4a565b80601f016020809104026020016040519081016040528092919081815260200182805461047590611e4a565b80156104c25780601f10610497576101008083540402835291602001916104c2565b820191906000526020600020905b8154815290600101906020018083116104a557829003601f168201915b5050505050905090565b60006104d782610a03565b506104e182610a8b565b9050919050565b6104fa82826104f5610ac8565b610ad0565b5050565b600073ffffffffffffffffffffffffffffffffffffffff168273ffffffffffffffffffffffffffffffffffffffff16036105705760006040517f64a0ae920000000000000000000000000000000000000000000000000000000081526004016105679190611a86565b60405180910390fd5b6000610584838361057f610ac8565b610ae2565b90508373ffffffffffffffffffffffffffffffffffffffff168173ffffffffffffffffffffffffffffffffffffffff16146105fa578382826040517f64283d7b0000000000000000000000000000000000000000000000000000000081526004016105f193929190611e7b565b60405180910390fd5b50505050565b61061b838383604051806020016040528060008152506107f9565b505050565b600061062b82610a03565b9050919050565b61063e81600754610cfc565b6007600081548092919061065190611ee1565b919050555050565b60008073ffffffffffffffffffffffffffffffffffffffff168273ffffffffffffffffffffffffffffffffffffffff16036106cc5760006040517f89c62b640000000000000000000000000000000000000000000000000000000081526004016106c39190611a86565b60405180910390fd5b600360008373ffffffffffffffffffffffffffffffffffffffff1673ffffffffffffffffffffffffffffffffffffffff168152602001908152602001600020549050919050565b61071b610d1a565b6107256000610da1565b565b6000600660009054906101000a900473ffffffffffffffffffffffffffffffffffffffff16905090565b60606001805461076090611e4a565b80601f016020809104026020016040519081016040528092919081815260200182805461078c90611e4a565b80156107d95780601f106107ae576101008083540402835291602001916107d9565b820191906000526020600020905b8154815290600101906020018083116107bc57829003601f168201915b5050505050905090565b6107f56107ee610ac8565b8383610e67565b5050565b6108048484846104fe565b61081084848484610fd6565b50505050565b606061082182610a03565b50600061082c61118d565b9050600081511161084c5760405180602001604052806000815250610877565b80610856846111a4565b604051602001610867929190611f65565b6040516020818303038152906040525b915050919050565b6000600560008473ffffffffffffffffffffffffffffffffffffffff1673ffffffffffffffffffffffffffffffffffffffff16815260200190815260200160002060008373ffffffffffffffffffffffffffffffffffffffff1673ffffffffffffffffffffffffffffffffffffffff16815260200190815260200160002060009054906101000a900460ff16905092915050565b61091b610d1a565b600073ffffffffffffffffffffffffffffffffffffffff168173ffffffffffffffffffffffffffffffffffffffff160361098d5760006040517f1e4fbdf70000000000000000000000000000000000000000000000000000000081526004016109849190611a86565b60405180910390fd5b61099681610da1565b50565b60007f01ffc9a7000000000000000000000000000000000000000000000000000000007bffffffffffffffffffffffffffffffffffffffffffffffffffffffff1916827bffffffffffffffffffffffffffffffffffffffffffffffffffffffff1916149050919050565b600080610a0f83611272565b9050600073ffffffffffffffffffffffffffffffffffffffff168173ffffffffffffffffffffffffffffffffffffffff1603610a8257826040517f7e273289000000000000000000000000000000000000000000000000000000008152600401610a799190611b9c565b60405180910390fd5b80915050919050565b60006004600083815260200190815260200160002060009054906101000a900473ffffffffffffffffffffffffffffffffffffffff169050919050565b600033905090565b610add83838360016112af565b505050565b600080610aee84611272565b9050600073ffffffffffffffffffffffffffffffffffffffff168373ffffffffffffffffffffffffffffffffffffffff1614610b3057610b2f818486611474565b5b600073ffffffffffffffffffffffffffffffffffffffff168173ffffffffffffffffffffffffffffffffffffffff1614610bc157610b726000856000806112af565b6001600360008373ffffffffffffffffffffffffffffffffffffffff1673ffffffffffffffffffffffffffffffffffffffff168152602001908152602001600020600082825403925050819055505b600073ffffffffffffffffffffffffffffffffffffffff168573ffffffffffffffffffffffffffffffffffffffff1614610c44576001600360008773ffffffffffffffffffffffffffffffffffffffff1673ffffffffffffffffffffffffffffffffffffffff168152602001908152602001600020600082825401925050819055505b846002600086815260200190815260200160002060006101000a81548173ffffffffffffffffffffffffffffffffffffffff021916908373ffffffffffffffffffffffffffffffffffffffff160217905550838573ffffffffffffffffffffffffffffffffffffffff168273ffffffffffffffffffffffffffffffffffffffff167fddf252ad1be2c89b69c2b068fc378daa952ba7f163c4a11628f55a4df523b3ef60405160405180910390a4809150509392505050565b610d16828260405180602001604052806000815250611538565b5050565b610d22610ac8565b73ffffffffffffffffffffffffffffffffffffffff16610d40610727565b73ffffffffffffffffffffffffffffffffffffffff1614610d9f57610d63610ac8565b6040517f118cdaa7000000000000000000000000000000000000000000000000000000008152600401610d969190611a86565b60405180910390fd5b565b6000600660009054906101000a900473ffffffffffffffffffffffffffffffffffffffff16905081600660006101000a81548173ffffffffffffffffffffffffffffffffffffffff021916908373ffffffffffffffffffffffffffffffffffffffff1602179055508173ffffffffffffffffffffffffffffffffffffffff168173ffffffffffffffffffffffffffffffffffffffff167f8be0079c531659141344cd1fd0a4f28419497f9722a3daafe3b4186f6b6457e060405160405180910390a35050565b600073ffffffffffffffffffffffffffffffffffffffff168273ffffffffffffffffffffffffffffffffffffffff1603610ed857816040517f5b08ba18000000000000000000000000000000000000000000000000000000008152600401610ecf9190611a86565b60405180910390fd5b80600560008573ffffffffffffffffffffffffffffffffffffffff1673ffffffffffffffffffffffffffffffffffffffff16815260200190815260200160002060008473ffffffffffffffffffffffffffffffffffffffff1673ffffffffffffffffffffffffffffffffffffffff16815260200190815260200160002060006101000a81548160ff0219169083151502179055508173ffffffffffffffffffffffffffffffffffffffff168373ffffffffffffffffffffffffffffffffffffffff167f17307eab39ab6107e8899845ad3d59bd9653f200f220920489ca2b5937696c3183604051610fc99190611915565b60405180910390a3505050565b60008373ffffffffffffffffffffffffffffffffffffffff163b1115611187578273ffffffffffffffffffffffffffffffffffffffff1663150b7a0261101a610ac8565b8685856040518563ffffffff1660e01b815260040161103c9493929190611fde565b6020604051808303816000875af192505050801561107857506040513d601f19601f82011682018060405250810190611075919061203f565b60015b6110fc573d80600081146110a8576040519150601f19603f3d011682016040523d82523d6000602084013e6110ad565b606091505b5060008151036110f457836040517f64a0ae920000000000000000000000000000000000000000000000000000000081526004016110eb9190611a86565b60405180910390fd5b805181602001fd5b63150b7a0260e01b7bffffffffffffffffffffffffffffffffffffffffffffffffffffffff1916817bffffffffffffffffffffffffffffffffffffffffffffffffffffffff19161461118557836040517f64a0ae9200000000000000000000000000000000000000000000000000000000815260040161117c9190611a86565b60405180910390fd5b505b50505050565b606060405180602001604052806000815250905090565b6060600060016111b384611554565b01905060008167ffffffffffffffff8111156111d2576111d1611c2d565b5b6040519080825280601f01601f1916602001820160405280156112045781602001600182028036833780820191505090505b509050600082602001820190505b600115611267578080600190039150507f3031323334353637383961626364656600000000000000000000000000000000600a86061a8153600a858161125b5761125a61206c565b5b04945060008503611212575b819350505050919050565b60006002600083815260200190815260200160002060009054906101000a900473ffffffffffffffffffffffffffffffffffffffff169050919050565b80806112e85750600073ffffffffffffffffffffffffffffffffffffffff168273ffffffffffffffffffffffffffffffffffffffff1614155b1561141c5760006112f884610a03565b9050600073ffffffffffffffffffffffffffffffffffffffff168373ffffffffffffffffffffffffffffffffffffffff161415801561136357508273ffffffffffffffffffffffffffffffffffffffff168173ffffffffffffffffffffffffffffffffffffffff1614155b80156113765750611374818461087f565b155b156113b857826040517fa9fbf51f0000000000000000000000000000000000000000000000000000000081526004016113af9190611a86565b60405180910390fd5b811561141a57838573ffffffffffffffffffffffffffffffffffffffff168273ffffffffffffffffffffffffffffffffffffffff167f8c5be1e5ebec7d5bd14f71427d1e84f3dd0314c0f7b2291e5b200ac8c7c3b92560405160405180910390a45b505b836004600085815260200190815260200160002060006101000a81548173ffffffffffffffffffffffffffffffffffffffff021916908373ffffffffffffffffffffffffffffffffffffffff16021790555050505050565b61147f8383836116a7565b61153357600073ffffffffffffffffffffffffffffffffffffffff168373ffffffffffffffffffffffffffffffffffffffff16036114f457806040517f7e2732890000000000000000000000000000000000000000000000000000000081526004016114eb9190611b9c565b60405180910390fd5b81816040517f177e802f00000000000000000000000000000000000000000000000000000000815260040161152a92919061209b565b60405180910390fd5b505050565b6115428383611768565b61154f6000848484610fd6565b505050565b600080600090507a184f03e93ff9f4daa797ed6e38ed64bf6a1f01000000000000000083106115b2577a184f03e93ff9f4daa797ed6e38ed64bf6a1f01000000000000000083816115a8576115a761206c565b5b0492506040810190505b6d04ee2d6d415b85acef810000000083106115ef576d04ee2d6d415b85acef810000000083816115e5576115e461206c565b5b0492506020810190505b662386f26fc10000831061161e57662386f26fc1000083816116145761161361206c565b5b0492506010810190505b6305f5e1008310611647576305f5e100838161163d5761163c61206c565b5b0492506008810190505b612710831061166c5761271083816116625761166161206c565b5b0492506004810190505b6064831061168f57606483816116855761168461206c565b5b0492506002810190505b600a831061169e576001810190505b80915050919050565b60008073ffffffffffffffffffffffffffffffffffffffff168373ffffffffffffffffffffffffffffffffffffffff161415801561175f57508273ffffffffffffffffffffffffffffffffffffffff168473ffffffffffffffffffffffffffffffffffffffff161480611720575061171f848461087f565b5b8061175e57508273ffffffffffffffffffffffffffffffffffffffff1661174683610a8b565b73ffffffffffffffffffffffffffffffffffffffff16145b5b90509392505050565b600073ffffffffffffffffffffffffffffffffffffffff168273ffffffffffffffffffffffffffffffffffffffff16036117da5760006040517f64a0ae920000000000000000000000000000000000000000000000000000000081526004016117d19190611a86565b60405180910390fd5b60006117e883836000610ae2565b9050600073ffffffffffffffffffffffffffffffffffffffff168173ffffffffffffffffffffffffffffffffffffffff161461185c5760006040517f73c6ac6e0000000000000000000000000000000000000000000000000000000081526004016118539190611a86565b60405180910390fd5b505050565b6000604051905090565b600080fd5b600080fd5b60007fffffffff0000000000000000000000000000000000000000000000000000000082169050919050565b6118aa81611875565b81146118b557600080fd5b50565b6000813590506118c7816118a1565b92915050565b6000602082840312156118e3576118e261186b565b5b60006118f1848285016118b8565b91505092915050565b60008115159050919050565b61190f816118fa565b82525050565b600060208201905061192a6000830184611906565b92915050565b600081519050919050565b600082825260208201905092915050565b60005b8381101561196a57808201518184015260208101905061194f565b60008484015250505050565b6000601f19601f8301169050919050565b600061199282611930565b61199c818561193b565b93506119ac81856020860161194c565b6119b581611976565b840191505092915050565b600060208201905081810360008301526119da8184611987565b905092915050565b6000819050919050565b6119f5816119e2565b8114611a0057600080fd5b50565b600081359050611a12816119ec565b92915050565b600060208284031215611a2e57611a2d61186b565b5b6000611a3c84828501611a03565b91505092915050565b600073ffffffffffffffffffffffffffffffffffffffff82169050919050565b6000611a7082611a45565b9050919050565b611a8081611a65565b82525050565b6000602082019050611a9b6000830184611a77565b92915050565b611aaa81611a65565b8114611ab557600080fd5b50565b600081359050611ac781611aa1565b92915050565b60008060408385031215611ae457611ae361186b565b5b6000611af285828601611ab8565b9250506020611b0385828601611a03565b9150509250929050565b600080600060608486031215611b2657611b2561186b565b5b6000611b3486828701611ab8565b9350506020611b4586828701611ab8565b9250506040611b5686828701611a03565b9150509250925092565b600060208284031215611b7657611b7561186b565b5b6000611b8484828501611ab8565b91505092915050565b611b96816119e2565b82525050565b6000602082019050611bb16000830184611b8d565b92915050565b611bc0816118fa565b8114611bcb57600080fd5b50565b600081359050611bdd81611bb7565b92915050565b60008060408385031215611bfa57611bf961186b565b5b6000611c0885828601611ab8565b9250506020611c1985828601611bce565b9150509250929050565b600080fd5b600080fd5b7f4e487b7100000000000000000000000000000000000000000000000000000000600052604160045260246000fd5b611c6582611976565b810181811067ffffffffffffffff82111715611c8457611c83611c2d565b5b80604052505050565b6000611c97611861565b9050611ca38282611c5c565b919050565b600067ffffffffffffffff821115611cc357611cc2611c2d565b5b611ccc82611976565b9050602081019050919050565b82818337600083830152505050565b6000611cfb611cf684611ca8565b611c8d565b905082815260208101848484011115611d1757611d16611c28565b5b611d22848285611cd9565b509392505050565b600082601f830112611d3f57611d3e611c23565b5b8135611d4f848260208601611ce8565b91505092915050565b60008060008060808587031215611d7257611d7161186b565b5b6000611d8087828801611ab8565b9450506020611d9187828801611ab8565b9350506040611da287828801611a03565b925050606085013567ffffffffffffffff811115611dc357611dc2611870565b5b611dcf87828801611d2a565b91505092959194509250565b60008060408385031215611df257611df161186b565b5b6000611e0085828601611ab8565b9250506020611e1185828601611ab8565b9150509250929050565b7f4e487b7100000000000000000000000000000000000000000000000000000000600052602260045260246000fd5b60006002820490506001821680611e6257607f821691505b602082108103611e7557611e74611e1b565b5b50919050565b6000606082019050611e906000830186611a77565b611e9d6020830185611b8d565b611eaa6040830184611a77565b949350505050565b7f4e487b7100000000000000000000000000000000000000000000000000000000600052601160045260246000fd5b6000611eec826119e2565b91507fffffffffffffffffffffffffffffffffffffffffffffffffffffffffffffffff8203611f1e57611f1d611eb2565b5b600182019050919050565b600081905092915050565b6000611f3f82611930565b611f498185611f29565b9350611f5981856020860161194c565b80840191505092915050565b6000611f718285611f34565b9150611f7d8284611f34565b91508190509392505050565b600081519050919050565b600082825260208201905092915050565b6000611fb082611f89565b611fba8185611f94565b9350611fca81856020860161194c565b611fd381611976565b840191505092915050565b6000608082019050611ff36000830187611a77565b6120006020830186611a77565b61200d6040830185611b8d565b818103606083015261201f8184611fa5565b905095945050505050565b600081519050612039816118a1565b92915050565b6000602082840312156120555761205461186b565b5b60006120638482850161202a565b91505092915050565b7f4e487b7100000000000000000000000000000000000000000000000000000000600052601260045260246000fd5b60006040820190506120b06000830185611a77565b6120bd6020830184611b8d565b939250505056fea2646970667358221220f40cf7e4d68453493de1ac137d2df7f11d8bcbbb533917d41298fae36559f9ad64736f6c63430008140033",
  "linkReferences": {},
  "deployedLinkReferences": {}
}